:020000040800F2
:1000000058380120C10700089D0500089F05000819
:10001000A3050008A7050008AB05000800000000C4
:100020000000000000000000000000003102000895
:10003000AF0500080000000085020008C922000882
:10004000DB070008DB070008DB070008DB07000808
:10005000DB070008DB070008DB070008DB070008F8
:10006000DB070008DB070008DB070008DB070008E8
:10007000DB070008DB070008DB070008DB070008D8
:10008000DB070008DB070008DB070008DB070008C8
:10009000DB070008DB070008DB070008DB070008B8
:1000A000DB070008DB070008DB070008DB070008A8
:1000B000DB070008DB070008DB070008DB07000898
:1000C000DB070008DB070008DB070008DB07000888
:1000D000DB0700086B240008A95900087F7200089C
:1000E000DB070008DB070008DB070008DB07000868
:1000F000DB070008DB070008DB070008DB07000858
:10010000DB070008DB070008DB070008DB07000847
:10011000DB070008DB070008DB070008DB07000837
:10012000DB070008DB070008DB070008DB07000827
:10013000DB070008DB070008DB070008DB07000817
:10014000DB070008DB070008DB070008DB07000807
:10015000DB070008DB070008DB070008DB070008F7
:10016000DB070008DB070008DB070008DB070008E7
:10017000DB070008DB070008DB070008DB070008D7
:10018000DB070008DB07000800F002F800F041F888
:100190000AA090E8000C82448344AAF10107DA45E2
:1001A00001D100F036F8AFF2090EBAE80F0013F0F3
:1001B000010F18BFFB1A43F00103184744930000D6
:1001C00064930000103A24BF78C878C1FAD8520767
:1001D00024BF30C830C144BF04680C6070470000C1
:1001E0000023002400250026103A28BF78C1FBD840
:1001F000520728BF30C148BF0B607047642907F021
:10020000D380002070471FB508F094FF1FBD10B5C4
:1002100010BD07F07DFA1146FFF7F5FF00F015F964
:1002200007F09BFA03B4FFF7F2FF03BC02F0BEF83D
:100230002A4B19680868B0E8F04F80F30988BFF3CB
:100240006F8F4FF0000080F31188704700000000AE
:1002500006480068006880F3088862B661B6BFF39C
:100260004F8FBFF36F8F00DF00BF00BF08ED00E0CE
:10027000DFF80C00016841F470010160704700BFB5
:1002800088ED00E0EFF30980BFF36F8F134B1A681E
:100290001EF0100F08BF20ED108A20E9F04F10600B
:1002A00008B44FF0500080F31188BFF34F8FBFF3B5
:1002B0006F8F03F0CEFE4FF0000080F3118808BC72
:1002C00019680868B0E8F04F1EF0100F08BFB0ECD6
:1002D000108A80F30988BFF36F8F70476800002091
:1002E000EFF30580704700002DED048B40E0002304
:1002F0005A1E19466148006802F069FE012833D190
:100300005F48007800282FD05E495F4805F0FAFE6C
:100310005EA007F009F85C49D1F8490008F036FC06
:1003200041EC190B9FED5E0B53EC102B08F090FA8B
:1003300041EC180B08F0E4FB05465349486C08F003
:1003400025FC41EC180B08F0DBFB0446294656A0BF
:1003500006F0EAFF214659A006F0E6FF00205C49BE
:1003600008704749087000BF4FF4FA7003F041FD70
:10037000BDE700BF0BE05748007820B106F04EFD06
:1003800055A006F0D1FF4FF4FA7003F032FDF2E70A
:1003900001E005F084FAFCE71CB5012402F08DF9B8
:1003A00003220021012002F021FC344908604E485C
:1003B000012100234A02CDE900104CA14E4803F070
:1003C0009AFA0446012C02D14CA006F0ADFF514828
:1003D000022100230A02CDE900104FA1534803F087
:1003E0008AFA0446012C02D151A006F09DFF58481C
:1003F000022100230A02CDE9001056A1594803F05A
:100400007AFA0446012C02D157A006F08DFF5D4810
:10041000006803F0BEFA02F077F91CBD10B54FF486
:10042000407000F0EDF9A82001F052FF05F01EFA2F
:100430004FF4E13001F0C7FF4FF4E13005F0DBFA93
:100440004FF4165006F0C0FE10BD1CB50124FFF796
:10045000E5FF4C48012100234A02CDE900104AA1E2
:100460004D4803F048FA0446012C02D103F080FF06
:1004700002E04FF0FF301CBD00BFFEE7100000207F
:10048000D90000209C2F0120DC000020D6B4D0D061
:1004900053656E644750535F5461736B0D0A0000DF
:1004A0000000000000002440D5E6CAB5BEADB6C8C5
:1004B000CEAAA3BA2025640D0A000000D5E6CAB56D
:1004C000CEB3B6C8CEAAA3BA2025640D0A00000098
:1004D000D8000020BA000020B4ABCAE4D2A3BFD831
:1004E000D6B52121210D0A00040000204C45445FAF
:1004F0005461736B0000000091030008B4B4BDA800
:100500004C45445F5461736BC8CECEF1B3C9B9A6F4
:10051000210A000008000020526563656976654F76
:10052000726465725F5461736B00000073030008AE
:10053000B4B4BDA8526563656976654F726465722F
:100540005F5461736BC8CECEF1B3C9B9A6210A005E
:100550000C00002053656E644750535F5461736B09
:1005600000000000E9020008B4B4BDA853656E6441
:100570004750535F5461736BC8CECEF1B3C9B9A66F
:10058000210A0000000000204170705461736B4329
:10059000726561746500000099030008704700BF30
:1005A000FEE700BFFEE700BFFEE700BFFEE77047C3
:1005B0000CB50020019000907648006840F480302F
:1005C0007449086000BF7348006800F40030009070
:1005D0000198401C0190009818B90198B0F5A04FFF
:1005E000F1D16C48006800F4003010B10120009097
:1005F00001E0002000900098012846D16548403075
:10060000006840F0805063494031086062480068EB
:1006100040F44040604908605E48083000685D4929
:10062000083108600846006840F400400860084649
:10063000006840F4A05008605848091F0860081F6F
:10064000006840F08070091F086000BF51480068D2
:1006500000F000700028F9D040F2057050490860A1
:100660004C480830006820F003004A49083108600F
:100670000846006840F00200086000BF45480830A6
:10068000006800F00C000828F8D10CBD10B54548F2
:10069000006840F47000434908603E48006840F03C
:1006A00001003C49086000203A4908310860394897
:1006B00000683D490840374908603C48091D08600A
:1006C000081F006820F48020091F086000203149BD
:1006D0000C310860FFF76CFF4FF000603149803942
:1006E000086010BD70B50020002202230024022102
:1006F000284D08352D6805F00C0020B1042806D0DF
:10070000082834D107E02A4D2A4E356033E02A4DBF
:10071000284E35602FE01F4D2D1D2D68C5F38054E8
:100720001C4D2D1D2D6805F03F0154B1224DB5FB28
:10073000F1F5184E361D3668C6F3881605FB06F22D
:1007400009E01B4DB5FBF1F5124E361D3668C6F3B8
:10075000881605FB06F20F4D2D1D2D68C5F30145CA
:100760006D1C6B00B2FBF3F5124E356003E0104DCB
:10077000104E356000BF00BF064D08352D68C5F32B
:1007800003150E4E705D0B4D2D68C540094E35604A
:1007900070BD00000038024000700040085440075F
:1007A000003C024088ED00E0FFFFF6FE1030002420
:1007B0000024F4001400002000127A001800002029
:1007C0000948804709480047FEE7FEE7FEE7FEE7E5
:1007D000FEE7FEE7FEE7FEE7FEE7FEE70448054921
:1007E000054A064B704700008D0600088901000885
:1007F0005832012058380120583401205834012043
:1008000032490143324A1160704770B5002100231C
:100810000F22C4781CB32E4C246804F4E064C4F5A1
:10082000E064C4F30721C1F10404E3B20A4144784F
:100830009C40E1B28478144021430C07210E254CE2
:1008400005786155047804F01F050124AC40057853
:100850006D11AD0005F1E025C5F8004109E004780F
:1008600004F01F050124AC401B4D0678761145F8B5
:10087000264070BD194A0A400243154B1B1F1A60DF
:10088000704739B1124A121D12680243104B1B1DEA
:100890001A6006E00E4A121D126882430C4B1B1DA3
:1008A0001A607047042808D14FF0E021096941F02F
:1008B00004014FF0E022116107E04FF0E0210969E7
:1008C00021F004014FF0E022116170470000FA05A9
:1008D0000CED00E000E400E080E100E080FFFF1F9D
:1008E00010B504469848844208D10121084600F01A
:1008F00086FB0021012000F082FB76E093488442D1
:1009000008D10121022000F07AFB0021022000F032
:1009100076FB6AE08E48844208D10121042000F071
:100920006EFB0021042000F06AFB5EE089488442EF
:1009300008D10121082000F062FB0021082000F00E
:100940005EFB52E08448844208D10121102000F06F
:1009500056FB0021102000F052FB46E07F48844205
:1009600008D10121202000F04AFB0021202000F0C6
:1009700046FB3AE07A48844208D10121402000F049
:100980003EFB0021402000F03AFB2EE075488442F7
:1009900008D10121802000F032FB0021802000F0EE
:1009A0002EFB22E07048844208D10121801500F01E
:1009B00026FB0021A01500F022FB16E06B488442C4
:1009C00008D10121401500F01AFB0021601500F04C
:1009D00016FB0AE06648844207D10121001500F0A9
:1009E0000EFB0021201500F00AFB10BDF0B50A46F1
:1009F00000210023002400BF3DE0012505FA01F39A
:100A0000156805EA03049C4234D105684F000326AB
:100A1000BE40B543056015794E00B54006683543C4
:100A200005601579012D02D01579022D16D1856842
:100A30004F000326BE40B543856055794E00B54052
:100A4000866835438560456801268E40B54345601C
:100A5000456896798E40B6B235434560C5684F000B
:100A60000326BE40B543C560D5794E00B540C66883
:100A70003543C560491C1029BFD3F0BD4FF6FF7147
:100A800001600021017141718171C171704708B528
:100A90004FF480320092009A0A430092009AC26199
:100AA000C161009AC261C2690092C269009208BD28
:100AB0000246002013690B400BB1012000E000202A
:100AC00070470146086980B27047024600205369AA
:100AD0000B400BB1012000E000207047014648693F
:100AE00080B2704701837047418370470AB1018328
:100AF00000E0418370474161704742694A4042616A
:100B00007047F0B5002300244D07ED0E02FA05F3FF
:100B1000CE1000F1200555F826504E07F70E0F268F
:100B2000BE40B543CF1000F1200646F82750CE1046
:100B300000F1200555F8265045EA0304CE1000F1D7
:100B4000200545F82640F0BD0000024000040240A8
:100B500000080240000C0240001002400014024055
:100B600000180240001C0240002002400024024005
:100B700000280240F948006840F00100F749086089
:100B80000020F64908310860F4480068F44908403C
:100B9000F2490860F348091D0860F348EF498431C1
:100BA0000860F0481038091D0860EC48006820F41F
:100BB0008020EA4908600020E8490C310860E749D4
:100BC0008C31086070470021E44A921C1170114674
:100BD0000870704710B501460022002300204A111A
:100BE000012A02D1DD4C236808E0022A03D1DB4C44
:100BF0007034236802E0D94C7434236801F01F027A
:100C0000012494401C400CB1012000E0002010BDE4
:100C100038B5002000900024002500BF3120FFF7E8
:100C2000D9FF05460098401C00900098B0F5A04FF1
:100C300001D0002DF2D03120FFF7CCFF08B1012404
:100C400000E00024204638BD01460020C34A106859
:100C500020F0F80040EAC10010607047C349086006
:100C600070470021BD4A703211701170012802D006
:100C700004280AD104E00121B84A7032117005E05D
:100C80000521B64A7032117000E000BF00BF704706
:100C9000B7490860704770B5049C41EA8215012687
:100CA000C6EB530645EA0645054345EA0465AB4EE7
:100CB000361D356070BDAD4908667047820142EA55
:100CC0000172A64B84331A607047A8498866704742
:100CD00010B5830143EA016343EA02739F4C8834F1
:100CE000236010BDA14908677047A049C8647047D8
:100CF00002460020994B0833186820F0EC6042EA65
:100D000001031843954B08331860704702460020D2
:100D1000924B0833186820F0784042EA01031843E8
:100D20008E4B083318607047014600208B4A08320A
:100D3000106820F0030008431060704787480830AF
:100D4000006800F00C00704701460020834A08321A
:100D5000106820F0F0000843106070470146002042
:100D60007E4A0832106820F4E05008431060704753
:100D700001460020794A0832106820F4604040EAB9
:100D8000C10010607047F0B5002100220024022548
:100D900000260223714F08373F6807F00C0121B18C
:100DA000042905D0082937D105E0724F076036E0E5
:100DB000714F076033E0694F3F1D3F68C7F38056AE
:100DC000664F3F1D3F6807F03F036EB16A4FB7FBA8
:100DD000F3F7DFF888C10CF1040CDCF800C0CCF3A9
:100DE000881C07FB0CF40CE0624FB7FBF3F7DFF84D
:100DF0006CC10CF1040CDCF800C0CCF3881C07FBC0
:100E00000CF4564F3F1D3F68C7F301477F1C7D0020
:100E1000B4FBF5F7076002E0564F076000BF00BF64
:100E20004E4F08373F6807F0F0010909534F7A5CCD
:100E30000768D7404760494F08373F6807F4E051DB
:100E4000890A4E4F7A5C4768D7408760434F08371E
:100E50003F6807F46041490B484F7A5C4768D740C8
:100E6000C760F0BD002100F44072B2F5407F0AD1A6
:100E70003A4A0832116821F4F811414A02401143FC
:100E8000364A08321160354A70321268C0F30B03DB
:100E90001A43324B70331A60704735494439086041
:100EA00070473349403908607047364908607047D9
:100EB00001460020294A8C32106820F01F004A1E8B
:100EC0001043264A8C321060704701460020234AA6
:100ED0008C32106820F4F8504A1E40EA02201F4A63
:100EE0008C3210607047014600201C4A8C3210681A
:100EF00020F4401008431060704701460020174A54
:100F00008C32106820F4400008431060704701469E
:100F10000020124A8C32106820F4403008431060E0
:100F2000704719490860704739B10C4A303212686D
:100F300002430A4B30331A6006E0084A3032126826
:100F40008243064B30331A607047F9B1034A34329A
:100F500012680243014B34331A601CE0003802402F
:100F6000FFFFF6EA10300024003000200000474266
:100F7000800E47420024F40000127A00280000206E
:100F8000FFFCFF0F5C014742E01147428F4A1268A5
:100F900082438E4B1A60704739B18C4A121D126819
:100FA00002438A4B1B1D1A6006E0884A121D126814
:100FB0008243864B1B1D1A60704739B1834A0C323D
:100FC00012680243814B0C331A6006E07F4A0C32F0
:100FD000126882437D4B0C331A60704739B17B4AEB
:100FE000103212680243794B10331A6006E0774AD8
:100FF000103212688243754B10331A60704739B152
:10100000724A243A12680243704B243B1A6006E08D
:101010006E4A243A126882436C4B243B1A60704734
:1010200039B16A4A203A12680243684B203B1A6081
:1010300006E0664A203A12688243644B203B1A60FD
:10104000704739B1614A1C3A126802435F4B1C3B3E
:101050001A6006E05D4A1C3A126882435B4B1C3BF7
:101060001A60704739B1594A143A12680243574B13
:10107000143B1A6006E0554A143A12688243534BF7
:10108000143B1A60704739B1504A103A1268024353
:101090004E4B103B1A6006E04C4A103A12688243ED
:1010A0004A4B103B1A60704739B1484A1C321268EB
:1010B0000243464B1C331A6006E0444A1C32126855
:1010C0008243424B1C331A60704739B13F4A203289
:1010D000126802433D4B20331A6006E03B4A20323F
:1010E00012688243394B20331A60704739B1374A4E
:1010F000243212680243354B24331A6006E0334A27
:10110000243212688243314B24331A60704739B15C
:101110002E4A2C32126802432C4B2C331A6006E004
:101120002A4A2C3212688243284B2C331A607047AB
:1011300039B1264A303212680243244B30331A60E8
:1011400006E0224A303212688243204B30331A6064
:101150007047012808D11D493C31096841F0080158
:101160001A4A3C32116007E018493C31096821F005
:101170000801164A3C321160704739B1134A273AC8
:1011800012780243114B273B1A7006E00F4A273AA8
:10119000127882430D4B273B1A7070470B48403042
:1011A000006840F08070094940310860704701468E
:1011B0000020064A283A12680A400AB1012000E0DD
:1011C00000207047014926390870704734380240C2
:1011D00010B50446FE48844208D101210846FFF7B5
:1011E00052FF00210120FFF74EFF9DE0B4F1804F38
:1011F00008D101210846FFF735FF00210120FFF744
:1012000031FF91E0F348844208D101210220FFF729
:1012100029FF00210220FFF725FF85E0EE488442E8
:1012200008D101210420FFF71DFF00210420FFF752
:1012300019FF79E0E948844208D101210820FFF72D
:1012400011FF00210820FFF70DFF6DE0E448844204
:1012500008D101211020FFF705FF00211020FFF722
:1012600001FF61E0DF48844208D101212020FFF71F
:10127000F9FE00212020FFF7F5FE55E0DA48844210
:1012800008D101210220FFF7FEFE00210220FFF716
:10129000FAFE49E0D548844209D101210804FFF74C
:1012A000F2FE00214FF48030FFF7EDFE3CE0D04825
:1012B000844209D101214804FFF7E5FE00214FF4E3
:1012C0000030FFF7E0FE2FE0CA48844209D1012137
:1012D0008804FFF7D8FE00214FF48020FFF7D3FEEB
:1012E00022E0C548844208D101214020FFF7BAFE20
:1012F00000214020FFF7B6FE16E0C048844208D126
:1013000001218020FFF7AEFE00218020FFF7AAFE1A
:101310000AE0BB48844207D101218015FFF7A2FEF5
:101320000021A015FFF79EFE10BD00220288A84BE9
:1013300098420ED0AC4B98420BD0B0F1804F08D001
:10134000A44B984205D0A44B984202D0A34B98429C
:1013500004D14FF68F731A404B881A43A04B984222
:1013600007D0A04B984204D04FF6FF431A400B8998
:101370001A4302804B68C3620B880385944B9842E2
:1013800002D0994B984201D18B7A03860123838244
:1013900070474FF0FF3141600021018001814180A1
:1013A000817270470185828270470A460021018858
:1013B0004FF68F73194011430180704741627047A7
:1013C000C16270470146486A70470146088D704700
:1013D00021B1028842F00202028004E002884FF646
:1013E000FD731A400280704721B1028842F0040266
:1013F000028004E002884FF6FB731A4002807047B7
:1014000021B1028842F08002028004E002884FF697
:101410007F731A400280704702884FF6F7731A40B4
:10142000028002880A430280704702884FF6FF4319
:101430001A40028002880A430280704721B1028864
:1014400042F00102028004E002884FF6FE731A4067
:101450000280704770B5002400220023058C4FF6EF
:10146000FE7635400584028C8388048B4FF68F7599
:101470002C40B51E2C400D882C43751E2A408D89AA
:101480002A434D882A43524DA84202D0564DA842C5
:1014900013D14FF6F7752A40CD892A434FF6FB75D5
:1014A0002A408D882A434FF6FF652B404FF6FF55A3
:1014B0002B400D8A2B434D8A2B43838004838D68F8
:1014C0004563028470BD70B5002400220023058CA2
:1014D0004FF6EF7635400584028C8388048B48F6FE
:1014E000FF752C404FF6FF452C400D884FF6FF76D8
:1014F00006EA05252C434FF6DF752A408D8906EA5A
:1015000005152A434D8806EA05152A43304DA842A1
:1015100002D0354DA8421DD14FF67F752A40CD89A6
:101520004FF6FF7606EA05152A434FF6BF752A40A7
:101530008D8806EA05152A434FF6FF352B404FF2FA
:10154000FF752B400D8A06EA85052B434D8A06EA76
:1015500085052B43838004838D688563028470BD79
:1015600070B5002400220023058C4FF6FF6635403D
:101570000584028C8388848B4FF68F752C404FF640
:10158000FC752C400D882C434FF6FF552A408D8961
:101590004FF6FF7606EA05252A434D8806EA05251B
:1015A0002A430B4DA84202D00F4DA84238D14FF22A
:1015B000FF752A40CD894FF6FF7606EA05252A43B6
:1015C0004FF6FF352A408D8806EA05252A4319E0A3
:1015D000000001400004004000080040000C0040F2
:1015E0000010004000140040000401400040014091
:1015F000004401400048014000180040001C004029
:10160000002000404EF6FF752B404DF6FF752B4035
:101610000D8A06EA05152B434D8A06EA05152B436C
:10162000838084838D68C563028470BD70B5002299
:1016300000230024058C4EF6FF7635400584038C8C
:101640008488828B48F6FF752A404FF6FF452A4072
:101650000D884FF6FF7606EA05252A434DF6FF75FD
:101660002B408D8906EA05352B434D8806EA053562
:101670002B43FE4DA84202D0FD4DA84208D14BF6A7
:10168000FF752C400D8A4FF6FF7606EA85152C4330
:10169000848082838D680564038470BD002101808D
:1016A0004180818081608181C18101824182704756
:1016B00070B50346002000241846183001258D40DF
:1016C000ACB21D8CA5431D8409B108290AD100EBD9
:1016D000610005684FF68F76354005600568154353
:1016E00005600FE00D1FC5F34E052844056848F658
:1016F000FF763540056005684FF6FF7606EA02265C
:101700003543056070BD4163704781637047C163B5
:101710007047016470470A460021018B4FF68F73B2
:1017200019401143018370470A460021018B48F696
:10173000FF7319404FF6FF7303EA02231943018335
:1017400070470A460021818B4FF68F731940114371
:10175000818370470A460021818B48F6FF73194048
:101760004FF6FF7303EA02231943818370470A4649
:101770000021018B4FF6F773194011430183704725
:101780000A460021018B4FF2FF7319404FF6FF7399
:1017900003EA02231943018370470A460021818B23
:1017A0004FF6F77319401143818370470A460021B1
:1017B000818B4FF2FF7319404FF6FF7303EA022348
:1017C0001943818370470A460021018B4FF6FB7352
:1017D00019401143018370470A460021018B4FF6DF
:1017E000FF3319404FF6FF7303EA022319430183C5
:1017F00070470A460021818B4FF6FB731940114355
:10180000818370470A460021818B4FF6FF331940D0
:101810004FF6FF7303EA02231943818370470A4698
:101820000021018B4FF67F731940114301837047EC
:101830000A460021018BC1F30E014FF6FF7303EA44
:1018400002231943018370470A460021818B4FF61A
:101850007F7319401143818370470A460021818BB1
:10186000C1F30E014FF6FF7303EA0223194381838C
:1018700070470A460021018C4FF6FD731940114351
:10188000018470470A460021018C4FF6F773194016
:101890001143018470470A460021018C4FF6DF7323
:1018A00019404FF6FF7303EA02131943018470478E
:1018B0000A460021018C4FF67F7319404FF6FF73E3
:1018C00003EA02131943018470470A460021018C80
:1018D0004FF6FF5319404FF6FF7303EA02231943F3
:1018E000018470470A460021018C4FF2FF731940B2
:1018F0004FF6FF7303EA02231943018470470A4637
:101900000021018C4DF6FF7319404FF6FF7303EA77
:10191000023319430184704730B5002301248C4001
:10192000A3B2048C9C430484048C02FA01F5ADB28A
:101930002C43048430BD30B5002304248C40A3B272
:10194000048C9C430484048C02FA01F5ADB22C4350
:10195000048430BD828B4FF2FF331A408283828B26
:101960004FF6FF7303EA01231A4382837047F0B5F1
:101970000C461546002100220026078C4EF6FF7CFF
:1019800007EA0C070784818B028C4FF6FF7707EA82
:10199000043640F6FF4739404FF6FF7707EA052740
:1019A00039434FF6FF7707EA0337394345F6FF77A8
:1019B0003A4046F480573A4381830284F0BD828BDB
:1019C0004FF6F3731A408283828B0A4382837047F7
:1019D000F0B50C461546002100220026078C4FF674
:1019E000FF6C07EA0C070784818B028C4FF6FF77A8
:1019F00007EA04264FF60C7739404FF6FF7707EADF
:101A000003172F4339434FF2FF573A4046F480778C
:101A10003A4381830284F0BD028B4FF2FF331A40B8
:101A20000283028B4FF6FF7303EA01231A430283FA
:101A30007047F0B50C461546002100220026078CA1
:101A40004FF6EF7C07EA0C070784018B028C4FF6F8
:101A5000FF7707EA041640F6FF4739404FF6FF7755
:101A600007EA033739434FF6FF7703E000000140F0
:101A70000004014007EA052739434FF65F773A40F3
:101A800046F010073A4301830284F0BD028B4FF603
:101A9000F3731A400283028B0A4302837047F0B546
:101AA0000C46154600210022068C4FF6FE773E407C
:101AB0000684018B028C4FF60C7631407E1C06EAC0
:101AC00003162E4331434FF6F576324044F00106BB
:101AD000324301830284F0BD70B505460C46208870
:101AE00050B92389A28861882846FFF7D8FFE1888A
:101AF0002846FFF7CBFF25E0208804280AD1238958
:101B0000A28861882846FFF794FFE1882846FFF7FE
:101B100083FF17E0208808280AD12389A2886188DA
:101B20002846FFF755FFE1882846FFF748FF09E000
:101B30002389A28861882846FFF719FFE188284693
:101B4000FFF708FF70BD00210180418001218180E5
:101B50000021C180018170472DE9F04105460C4606
:101B600000260127608808B9022600E00026A08828
:101B7000012801D1022700E001272088A0B923898C
:101B8000A28861882846FFF78AFFE1882846FFF788
:101B90007DFF23893A4631462846FFF74AFFE18810
:101BA0002846FFF739FF13E02389A2886188284679
:101BB000FFF73FFFE1882846FFF72EFF23893A46CB
:101BC00031462846FFF76BFFE1882846FFF75EFFA6
:101BD000BDE8F0810146486B70470146886B70474D
:101BE0000146C86B70470146086C70470A884B88ED
:101BF0001A438B881A43CB881A430B891A434B89A3
:101C00001A438B891A43A0F84420704700210180B1
:101C100041808180C180018141818181704731B1E2
:101C2000B0F8442042F40042A0F8442005E0B0F8A7
:101C30004420C2F30E02A0F84420704721B18288EC
:101C400042F00402828004E082884FF6FB731A405F
:101C50008280704721B1828842F00102828004E0D4
:101C600082884FF6FE731A40828070471AB18389CA
:101C70000B43838102E083898B4383817047818298
:101C8000704702460020138A0B400BB1012000E090
:101C900000207047CA430282704730B502460020D8
:101CA00000230024158A05EA0103958905EA010449
:101CB00013B10CB1012000E0002030BDCA43028204
:101CC000704741EA0203A0F8483070471AB183898F
:101CD0000B43838102E083898B438381704721B169
:101CE000828842F00802828004E082884FF6F7730F
:101CF0001A408280704701894FF6F87211400181C5
:101D000070470A46002101894FF68F73194011432D
:101D10000181704730B504460D4629462046FFF73D
:101D2000F0FF208940F00700208130BD2DE9F0410F
:101D300004460D4616461F46602D06D13B4601223D
:101D400031462046FFF775FE05E03B46012231464D
:101D50002046FFF7A4FE29462046FFF7D2FF208940
:101D600040F007002081BDE8F08130B50C4600212D
:101D70000189C9B24FF6FF7505EA032515432543CE
:101D80002943018130BD2DE9F04105460E46174635
:101D90009846002443463A4631462846FFF7E5FF79
:101DA0002C894FF6F870044044F007044FF68F700A
:101DB000044044F070042C81BDE8F081F0B5044685
:101DC0000D4616461F463B46324629462046FFF73B
:101DD000CCFF208940F480402081F0BD82884FF6FE
:101DE0008F731A40828082880A43828070470289FA
:101DF0004FF6F8731A40028102890A430281704744
:101E000002894FF67F731A40028102890A430281D8
:101E10007047F0B50C4615461E46002100220023EF
:101E20000189028B038C4FF6F877394021434FF636
:101E3000FC473A4040F201173A434FF6DD773B400A
:101E40004FF6FF7707EA06172F433B4301810283D2
:101E50000384F0BD21B1828842F08002828004E0D8
:101E600082884FF67F731A4082807047A0F8501026
:101E70007047000010B50446FA48844208D1012199
:101E80001020FFF700F900211020FFF7FCF857E0C1
:101E9000F548844209D101214804FFF7E3F8002105
:101EA0004FF40030FFF7DEF84AE0F048844209D1F1
:101EB00001218804FFF7D6F800214FF48020FFF7B6
:101EC000D1F83DE0EA48844209D10121C804FFF776
:101ED000C9F800214FF40020FFF7C4F830E0E548CE
:101EE000844209D101210805FFF7BCF800214FF415
:101EF0008010FFF7B7F823E0DF48844208D10121C2
:101F00002020FFF7C0F800212020FFF7BCF817E0E1
:101F1000DA48844209D101218807FFF7A3F800219C
:101F20004FF08040FFF79EF80AE0D548844207D181
:101F300001214005FFF796F800216005FFF792F8B0
:101F400010BD2DE9FF4705460E460024A14600BFFF
:101F5000A046B08900B100BF2C8A24F44054F08818
:101F600004432C82AC8941F20C608443B0883189EF
:101F70000843718908430443AC81AC8A24F440745B
:101F8000B0890443AC826846FEF7FDFEB548854241
:101F900002D0B948854202D1DDF80C9001E0DDF8AD
:101FA0000890A88900F4004040B109EBC90000EB9B
:101FB000091031684900B0FBF1F707E009EBC900EF
:101FC00000EB091031688900B0FBF1F76420B7FB22
:101FD000F0F004012009642101FB1078A88900F4C5
:101FE000004040B1322000EBC800B0FBF1F000F03F
:101FF0000700044308E0322000EB08106421B0FB26
:10200000F1F000F00F0004432C81BDE8FF874FF48E
:102010001651016000218180C18001810C21418124
:1020200000218181704710B502460020108A20F4FB
:1020300070600B884C8823438C882343CC882343CF
:102040001843108210BD0021018041808180C18031
:10205000704721B1828942F40052828104E0828972
:102060004DF6FF731A4082817047028B02F47F4263
:102070000283028B0A430283704721B1828942F4B2
:102080000042828103E08289C2F30E02828170479E
:1020900021B1828A42F40062828204E0828A4FF295
:1020A000FF731A4082827047C1F308028280704732
:1020B00001468888C0F308007047028A4FF6F07323
:1020C0001A400282028A0A430282704721B1828941
:1020D00042F00202828104E082894FF6FD731A40C9
:1020E0008281704782894FF2FF731A408281828910
:1020F0000A4382817047028A4FF6DF731A400282D8
:10210000028A0A430282704721B1028A42F4804265
:10211000028204E0028A4BF6FF731A400282704783
:10212000818941F001018181704721B1828A42F0A9
:102130000802828204E0828A4FF6F7731A40828294
:102140007047028BD2B20283028B42EA01220283E1
:10215000704721B1828A42F02002828204E0828AA2
:102160004FF6DF731A408282704721B1828A42F0B3
:102170001002828204E0828A4FF6EF731A40828254
:102180007047828A4FF6FB731A408282828A0A4322
:102190008282704721B1828A42F00202828204E088
:1021A000828A4FF6FD731A40828270471AB1838A81
:1021B0000B43838202E0838A8B4383827047F0B5AE
:1021C0000346002400260025002040F66A17B94285
:1021D00000D100BF1846C1F3421401F01F060127C9
:1021E00007FA06F5012C01D10C3004E0022C01D1D4
:1021F000103000E014301AB107682F43076002E086
:102200000768AF430760F0BD02460020B1F5007FCC
:1022100000D100BF13880B400BB1012000E000206B
:10222000704701F40072B2F5007F00D100BFCA43CD
:102230000280704770B5024600240023002500206C
:1022400040F66A16B14200D100BFC1F3421501F059
:102250001F03012606FA03F3012D13D1968933409B
:1022600017E000000010014000440040004800401A
:10227000004C004000500040001401400078004035
:10228000007C0040022D02D1168A334001E0968A7C
:1022900033400C12012606FA04F41688344013B1B8
:1022A0000CB1012000E0002070BD10B50022002319
:1022B00040F66A14A14200D100BF0A1201249440E2
:1022C000A3B2DC43048010BD10B500F039FA10BD94
:1022D00070B504460420FEF7E5FA3248047025463E
:1022E0004FF47A70454301202F4908804FF0E020D9
:1022F000006940F002004FF0E021086108464561A6
:10230000006940F00100086170BD70B5034600220D
:102310004FF0E0267569234E367803FB06F44FF044
:10232000E026B16910E04FF0E026B06988420BD09A
:10233000884202D20E1A324402E02E1A0E4432446F
:102340000146A24200D300E0EDE700BF70BD70B5CA
:10235000044602F0DEFA012810D0134800888442B7
:1023600006D311480088B4FBF0F5284601F041FD82
:102370000D480088B4FBF0F100FB11444FF47A7172
:1023800004FB01F0FFF7C1FF70BD30B50446002526
:1023900004E04FF47A70FFF7B8FF6D1CA542F8D344
:1023A00030BD0000380000203A00002000BF704718
:1023B00000BF4C4A128802F04002002AF9D0C2B293
:1023C000484B9A80704710B588B0044601210846F2
:1023D000FEF7AAFD01211020FEF700FE07220921C9
:1023E0004148FEF78EFB07220A213F48FEF789FB92
:1023F0004FF4C060069002208DF81C008DF81D007F
:1024000000208DF81E0001208DF81F0006A9364817
:10241000FEF7ECFA02940020ADF80C00ADF80E00C7
:10242000ADF81000ADF814000C20ADF8120002A9B0
:102430002C48FFF786FD01212A48FFF70AFE0122FA
:1024400040F225512748FFF7BAFE25208DF80400F9
:1024500003208DF805008DF8060001208DF8070097
:1024600001A8FEF7D2F908B010BD10B540F2255111
:102470001C48FFF7DFFE10B31A48FFF719FEC4B27D
:102480001A48008800F40040C8B91848008800F4D1
:10249000804060B10A2C03D000201449088020E05D
:1024A0001248008840F400401049088019E00D2CC3
:1024B00006D10E48008840F480400C49088010E0A6
:1024C0000A480088C0F30D0009490C5407480088E9
:1024D000401C0649088008460088C72801DD002006
:1024E000088010BD001001400000024040000020A4
:1024F0004B010020B9480068401C08B9012000E0E9
:10250000002050B900BF502080F31188BFF34F8FD7
:10251000BFF36F8F00BF00BFFEE700BF502080F306
:102520001188BFF34F8FBFF36F8F00BF00BFFEE76F
:10253000001F4FF080730360001F21F00103036050
:10254000001FA74B036014380260001F6FF00203E6
:10255000036020387047A34800684FF47A71B0FBDD
:10256000F1F0401E4FF0E0214861072008617047FC
:102570001CB59D4800689D49884201D0012000E0BB
:10258000002050B900BF502080F31188BFF34F8F57
:10259000BFF36F8F00BF00BFFEE793480068934909
:1025A000491E884201D0012000E0002050B900BF40
:1025B000502080F31188BFF34F8FBFF36F8F00BFA0
:1025C00000BFFEE78A49084600780190FF200A46CE
:1025D00010700846007800909DF8000000F0F000B0
:1025E0009DF80020904201D1012000E0002050B968
:1025F00000BF502080F31188BFF34F8FBFF36F8F60
:1026000000BF00BFFEE79DF8000000F05000794ACF
:1026100010700720784A106009E077480068401E73
:10262000754A10609DF800004006000E00909DF86D
:10263000000000F080008028EFD06F4800680002A2
:102640006D4A10601046008800F4E0601060684A2F
:102650000198107064482030006840F470006249AE
:10266000203108600846006840F070400860FFF7BD
:1026700072FF002059490860FDF7FAFD5F480068C5
:1026800040F040405D490860FDF7E2FD00201CBDC0
:1026900052480068B0F57A7F01D1012000E00020A7
:1026A00050B900BF502080F31188BFF34F8FBFF3A4
:1026B0006F8F00BF00BFFEE7704700BF502080F360
:1026C0001188BFF34F8FBFF36F8F00BF434800687F
:1026D000401C4249086008460068012813D142485E
:1026E000001D0068C0B208B9012000E0002050B908
:1026F00000BF502080F31188BFF34F8FBFF36F8F5F
:1027000000BF00BFFEE770473448006850B900BF03
:10271000502080F31188BFF34F8FBFF36F8F00BF3E
:1027200000BFFEE72D480068401E2C49086008469F
:10273000006820B9002080F3118800BF00BF7047F7
:1027400010B500BF502080F31188BFF34F8FBFF347
:102750006F8F00BF01F082F920B14FF08050224905
:10276000091D086000BF002080F3118800BF10BD64
:1027700070B5FDF7B5FD0446102C16D304F1E0202A
:1027800090F8F0531B480078854201DB012000E0FF
:10279000002050B900BF502080F31188BFF34F8F45
:1027A000BFF36F8F00BF00BFFEE70F480C3000681B
:1027B00000F4E06010490968884201D8012000E077
:1027C000002050B900BF502080F31188BFF34F8F15
:1027D000BFF36F8F00BF00BFFEE770BD4400002055
:1027E000F52400081400002000ED00E071C20F4144
:1027F00000E400E0480000204C00002034EF00E03E
:1028000010B501469F4800E0006803688B42FBD387
:102810000246436813448B4204D143684C68234406
:10282000436001460A464B6813440468A34211D131
:10283000954C03682468A34208D04B680468646818
:1028400023444B6003681B680B6005E08E4B1B68DC
:102850000B6001E003680B60884200D0016010BD8E
:1028600030B54FF49633894800F007042CB1C01DF1
:1028700020F00700854C041B1B1B0246814C226084
:102880000024804D6C60D018083820F007007E4C82
:10289000206000247C4D2D686C607B4D2D682C6081
:1028A0001146441A4C60784C24680C60784D4C6892
:1028B0002C60784D4C682C604FF00044764D2C60B5
:1028C00030BD2DE9F04104464FF0000801F027FA31
:1028D0006D48006808B9FFF7C3FF6F4800682040E3
:1028E00000286BD1D4B1083404F00700B0B104F073
:1028F0000700C0F10800044404F0070008B90120F3
:1029000000E0002050B900BF502080F31188BFF3D1
:102910004F8FBFF36F8F00BF00BFFEE7002C4DD07D
:102920005C480068844249D8564E3046056801E04C
:102930002E462D686868A04202D228680028F7D188
:1029400051480068854239D0306800F1080828688D
:1029500030606868001B102819D92F1907F007008C
:1029600008B9012000E0002050B900BF502080F3DA
:102970001188BFF34F8FBFF36F8F00BF00BFFEE71B
:102980006868001B78606C603846FFF739FF414982
:1029900068680968081A3F490860084600683C49A9
:1029A0000968884203D23B480068394908603A49BF
:1029B00068680968084368600020286001F001F930
:1029C00008F0070008B9012000E0002050B900BF5E
:1029D000502080F31188BFF34F8FBFF36F8F00BF7C
:1029E00000BFFEE74046BDE8F08170B506463546BB
:1029F000002E3FD0083D2C462749606809680840F2
:102A000008B1012000E0002050B900BF502080F341
:102A10001188BFF34F8FBFF36F8F00BF00BFFEE77A
:102A2000206808B9012000E0002050B900BF502004
:102A300080F31188BFF34F8FBFF36F8F00BF00BFCC
:102A4000FEE7154960680968084098B1206888B9B0
:102A50001149606809688843606001F060F90D49B8
:102A60006068096808440B4908602046FFF7C8FE03
:102A700001F0A7F870BD0748006870470448006877
:102A800070477047500000205800002013020020BB
:102A9000600000205C0000206400002000F10801BC
:102AA00041604FF0FF31816000F10801C1600161B8
:102AB00000210160704700210161704742684A604F
:102AC00093688B60936859609160086103685B1C30
:102AD0000360704710B502460B685C1C0CB91069A6
:102AE00007E002F1080000E04068446824689C4266
:102AF000FAD944684C604C68A160886041600A6102
:102B00001468641C146010BD01460A69D1E90130E3
:102B10009860D1E9010358605068884201D1886803
:102B20005060002008611068401E106010687047F7
:102B300070B505460E462C4654B900BF502080F3B0
:102B40001188BFF34F8FBFF36F8F00BF00BFFEE749
:102B5000FFF7B3FDD4E90F12206801FB02006060AB
:102B60000020A0632068A060E06B401E226C2168FA
:102B700000FB0210E060FF2084F8440084F8450068
:102B80009EB9206908B9012000E00020A8B904F12D
:102B9000100001F0B0FD80B14FF08050F84908609E
:102BA000BFF34F8FBFF36F8F07E004F11000FFF703
:102BB00075FF04F12400FFF771FFFFF7A5FD012069
:102BC00070BD2DE9F04106460D4617469846069C15
:102BD0000DB9246000E02760E663256401212046EA
:102BE000FFF7A6FF84F84C80BDE8F0812DE9F8439B
:102BF00005460E4690460DB1012000E0002050B978
:102C000000BF502080F31188BFF34F8FBFF36F8F49
:102C100000BF00BFFEE70EB9002701E005FB06F785
:102C200007F15000FFF74DFE044644B104F150098E
:102C300043464A46314628460094FFF7C2FF2046E5
:102C4000BDE8F88370B50446FFF737FD94F94550A9
:102C500010E0606A08B9012000E0002038B904F1F2
:102C6000240001F048FD18B101F041FE00E003E04E
:102C7000681E45B2002DECDC00BFFF2084F8450043
:102C8000FFF742FDFFF719FD94F9445010E0206969
:102C900008B9012000E0002048B904F1100001F05B
:102CA0002AFD08B101F023FE681E45B200E001E0F4
:102CB000002DECDC00BFFF2084F84400FFF724FD6A
:102CC00070BD70B50546FFF7F8FCA86BE96B88424C
:102CD00001D1012400E00024FFF716FD204670BD5D
:102CE0002DE9F04104460F4615464FF00008A66B4B
:102CF000206C40B9206860BB606801F068FE8046C7
:102D00000020606025E07DB93946226CA06804F09F
:102D100099FB216CA0680844A060D4E901108842A6
:102D200017D32068A06014E03946226CE06804F0F4
:102D300089FB216CE068401AE0602168E068884205
:102D400003D2216C6068401AE060022D01D106B107
:102D5000761E701CA0634046BDE8F0812DE9FF435C
:102D600083B0064688461D464FF00009344654B9E4
:102D700000BF502080F31188BFF34F8FBFF36F8FD8
:102D800000BF00BFFEE7B8F1000F01D1206C08B909
:102D9000012000E0002050B900BF502080F31188CE
:102DA000BFF34F8FBFF36F8F00BF00BFFEE7022D51
:102DB00002D1E06B012801D1012000E0002050B9D0
:102DC00000BF502080F31188BFF34F8FBFF36F8F88
:102DD00000BF00BFFEE701F09CFD08B9059808B9E7
:102DE000012000E0002050B900BF502080F311887E
:102DF000BFF34F8FBFF36F8F00BF00BFFEE700BF71
:102E0000FFF75BFCA06BE16B884201D3022D28D158
:102E10002A4641462046FFF763FF0746606A08B925
:102E2000012000E0002068B904F1240001F063FCF7
:102E300088B14FF0805052490860BFF34F8FBFF305
:102E40006F8F08E03FB14FF080504D490860BFF3ED
:102E50004F8FBFF36F8FFFF757FC012007B0BDE81E
:102E6000F083059818B9FFF74FFC0020F6E7B9F199
:102E7000000F04D101A801F0CBFC4FF00109FFF7CE
:102E800043FC00F04CFFFFF718FC94F94400401C91
:102E900010B9002084F8440094F94500401C10B992
:102EA000002084F84500FFF72FFC05A901A801F0D8
:102EB000DCFCF0B92046FFF704FFA0B104F11000DC
:102EC000059901F0AEFB2046FFF7BCFE00F079FE4D
:102ED000002895D14FF0805029490860BFF34F8FEB
:102EE000BFF36F8F8CE72046FFF7ACFE00F069FE62
:102EF00086E72046FFF7A6FE00F063FE0020ADE760
:102F000010B504464CB1002060602060E0600023F2
:102F10001A4619462046FFF721FF10BD2DE9F04162
:102F2000044601260027224600210120FFF75EFE0D
:102F300005462846FFF7E4FF2846BDE8F08170B556
:102F400005462C4654B900BF502080F31188BFF3CA
:102F50004F8FBFF36F8F00BF00BFFEE701F0D6FCBD
:102F6000616888420ED1E068401EE060E06828B9E0
:102F700000231A4619462046FFF7F0FE012602E01C
:102F800004ED00E00026304670BD70B50546FFF741
:102F900094FBA86B08B9012400E00024FFF7B4FB00
:102FA000204670BD70B504460D46206C70B1216C92
:102FB000E0680844E0606168E068884201D3206806
:102FC000E0602846226CE16804F03CFA70BD2DE90F
:102FD000FF4782B005460E461F464FF0000A2C46BA
:102FE00054B900BF502080F31188BFF34F8FBFF357
:102FF0006F8F00BF00BFFEE70EB9206C08B901203B
:1030000000E0002050B900BF502080F31188BFF3CA
:103010004F8FBFF36F8F00BF00BFFEE701F079FC59
:1030200008B9049808B9012000E0002050B900BF99
:10303000502080F31188BFF34F8FBFF36F8F00BF15
:1030400000BFFEE700BFFFF738FBD4F83890B9F1B6
:10305000000F3DD0D4F80C8031462046FFF7A2FF88
:10306000DFB9A9F10100A063206810B901F019FDD2
:103070006060206908B9012000E0002010BB04F165
:10308000100001F038FBE8B14FF08050FE490860B5
:10309000BFF34F8FBFF36F8F14E0C4F80C80606AEA
:1030A00008B9012000E0002060B904F1240001F01B
:1030B00022FB38B14FF08050F3490860BFF34F8FC7
:1030C000BFF36F8FFFF720FB012006B0BDE8F0874C
:1030D000049818B9FFF718FB0020F6E7BAF1000FC3
:1030E00004D1684601F094FB4FF0010AFFF70CFB96
:1030F00000F015FEFFF7E1FA94F94400401C10B906
:10310000002084F8440094F94500401C10B90020C8
:1031100084F84500FFF7F8FA04A9684601F0A5FB1A
:1031200040BB2046FFF731FFF0B1206830B9FFF710
:10313000C4FA606801F0F9FBFFF7E6FA04F1240035
:10314000049901F06EFA2046FFF77CFD00F039FD8E
:1031500000287FF478AF4FF08050CB490860BFF370
:103160004F8FBFF36F8F6EE72046FFF76BFD00F0C8
:1031700028FD68E72046FFF765FD00F022FD2046A8
:10318000FFF703FF0028EED000209EE72DE9F04175
:1031900006460F46344654B900BF502080F31188CC
:1031A000BFF34F8FBFF36F8F00BF00BFFEE701F08B
:1031B000ADFB6168884204D1E068401CE0600125F5
:1031C0000AE000233A4619462046FFF700FF05466D
:1031D00015B1E068401CE0602846BDE8F08170B59C
:1031E00005460E460DB1012000E0002050B900BF99
:1031F000502080F31188BFF34F8FBFF36F8F00BF54
:1032000000BFFEE7AE4201D8012000E0002050B927
:1032100000BF502080F31188BFF34F8FBFF36F8F33
:1032200000BF00BFFEE7022200212846FFF7DEFCB8
:10323000044604B1A663204670BD2DE9F05F074641
:103240008A4690461E463C4654B900BF502080F343
:103250001188BFF34F8FBFF36F8F00BF00BFFEE732
:10326000BAF1000F01D1206C08B9012000E0002064
:1032700050B900BF502080F31188BFF34F8FBFF3C8
:103280006F8F00BF00BFFEE7022E02D1E06B012866
:1032900001D1012000E0002050B900BF502080F390
:1032A0001188BFF34F8FBFF36F8F00BF00BFFEE7E2
:1032B000FFF75EFA00BF5021EFF3118081F3118810
:1032C000BFF34F8FBFF36F8F00BF0546A06BE16B5D
:1032D000884201D3022E23D194F945B0324651469B
:1032E0002046FFF7FDFC0BF1010088B9606A08B9C0
:1032F000012000E0002080B904F1240001F0FBF976
:1033000058B1B8F1000F08D00120C8F8000004E05F
:103310000BF1010040B284F845004FF0010901E0D3
:103320004FF0000900BF85F3118800BF4846BDE893
:10333000F09F2DE9F04706460F46344654B900BFCA
:10334000502080F31188BFF34F8FBFF36F8F00BF02
:1033500000BFFEE7206C08B9012000E0002050B952
:1033600000BF502080F31188BFF34F8FBFF36F8FE2
:1033700000BF00BFFEE7206808B9606808B90120F7
:1033800000E0002050B900BF502080F31188BFF347
:103390004F8FBFF36F8F00BF00BFFEE7FFF7E8F965
:1033A00000BF5021EFF3118081F31188BFF34F8FDD
:1033B000BFF36F8F00BF0546D4F83890E06B4845E7
:1033C0001ED994F945A009F10100A0630AF101009A
:1033D00070B9606A08B9012000E0002068B904F102
:1033E000240001F088F940B13FB10120386004E0C9
:1033F0000AF1010040B284F845004FF0010801E0F5
:103400004FF0000800BF85F3118800BF4046BDE8BB
:10341000F0872DE9F05F064689461746344654B9D1
:1034200000BF502080F31188BFF34F8FBFF36F8F21
:1034300000BF00BFFEE7B9F1000F01D1206C08B951
:10344000012000E0002050B900BF502080F3118817
:10345000BFF34F8FBFF36F8F00BF00BFFEE7FFF7D3
:1034600087F900BF5021EFF3118081F31188BFF37A
:103470004F8FBFF36F8F00BF0546D4F838A0BAF165
:10348000000F26D002E0000004ED00E094F944B003
:1034900049462046FFF786FDAAF10100A0630BF123
:1034A000010070B9206908B9012000E0002068B966
:1034B00004F1100001F01FF940B13FB10120386064
:1034C00004E00BF1010040B284F844004FF0010821
:1034D00001E04FF0000800BF85F3118800BF4046AF
:1034E000BDE8F09F2DE9F04706468846344654B9BA
:1034F00000BF502080F31188BFF34F8FBFF36F8F51
:1035000000BF00BFFEE7B8F1000F01D1206C08B981
:10351000012000E0002050B900BF502080F3118846
:10352000BFF34F8FBFF36F8F00BF00BFFEE7206C6C
:1035300008B1012000E0002050B900BF502080F306
:103540001188BFF34F8FBFF36F8F00BF00BFFEE73F
:10355000FFF70EF900BF5021EFF3118081F31188BE
:10356000BFF34F8FBFF36F8F00BF0546A06B48B10D
:10357000D4F80C9041462046FFF714FDC4F80C9097
:10358000012700E0002700BF85F3118800BF3846FF
:10359000BDE8F08770B5044654B900BF502080F3F1
:1035A0001188BFF34F8FBFF36F8F00BF00BFFEE7DF
:1035B000FFF783F8A56BFFF7A7F8284670BD70B535
:1035C0000446254655B900BF502080F31188BFF34B
:1035D0004F8FBFF36F8F00BF00BFFEE7FFF76DF89F
:1035E000D5E90E10461AFFF78FF8304670BD014638
:1035F00051B900BF502282F31188BFF34F8FBFF340
:103600006F8F00BF00BFFEE7886B70470146002048
:103610000EE0524A02EBC00252688A4207D10022F1
:103620004E4B43F8302003EBC0035A6002E0401CCD
:103630000828EED300BF704770B50446254655B93B
:1036400000BF502080F31188BFF34F8FBFF36F8FFF
:1036500000BF00BFFEE72846FFF7D8FF2846FFF768
:10366000C4F970BD0146886C70478164704701469B
:1036700091F84C007047014651B900BF502282F3C7
:103680001188BFF34F8FBFF36F8F00BF00BFFEE7FE
:103690008A6B0AB9012000E000207047014651B949
:1036A00000BF502282F31188BFF34F8FBFF36F8F9B
:1036B00000BF00BFFEE78A6BCB6B9A4201D10120AD
:1036C00000E000207047024600200BE0234B53F837
:1036D000303033B9214B43F8301003EBC0035A604C
:1036E00002E0401C0828F1D300BF704702460020CA
:1036F00000210AE0194B03EBC1035B68934203D13D
:10370000164B53F8310002E0491C0829F2D300BFE0
:1037100070472DE9F04105460E4617462C46FEF748
:10372000CCFF94F94400401C10B9002084F84400F8
:1037300094F94500401C10B9002084F84500FEF7BC
:10374000E3FFA06B28B93A46314604F1240000F0AB
:10375000B4FF2046FFF776FABDE8F081142E012071
:1037600010B5002407E004EB8401FC4A02EB810061
:10377000FFF794F9641C052CF5D3F948FFF78EF98F
:10378000F848FFF78BF9F848FFF788F9F748FFF793
:1037900085F9F748FFF782F9F148F6490860F148E2
:1037A000F549086010BD10B50446FEF786FFF348E2
:1037B0000068401CF1490860F148006840B9F048D1
:1037C00004600846006801280DD1FFF7C9FF0AE030
:1037D000EC48006838B9EA480068C06AE16A884283
:1037E00001D8E7480460E8480068401CE6490860E2
:1037F00008460068206494F82C1001208840E349B2
:1038000009680843E1490860E16A01EB8101D34A94
:1038100002EB8100211DFFF751F9FEF775FFD94832
:10382000006868B1D6480068C06AE16A884207D279
:103830004FF08050D6490860BFF34F8FBFF36F8FB2
:1038400010BD2DE9F05F82460F4690469B460A9ECA
:103850000C9C4FEA8801A522206B03F038FEA8F1EA
:103860000100216B01EB800929F0070909F007002D
:1038700008B9012000E0002050B900BF502080F3BB
:103880001188BFF34F8FBFF36F8F00BF00BFFEE7FC
:10389000002507E0795D04F134004155785D00B9F9
:1038A00002E06D1C0A2DF5D300BF00213D2001551B
:1038B000052E00D30426E662A6640020E064201DE5
:1038C000FFF7F9F804F11800FFF7F5F82461C6F1E5
:1038D0000500A06164620020206584F854005A4607
:1038E00051464846FEF724FE20600B9808B10B981D
:1038F0000460BDE8F09F2DE9FF4F85B08046894602
:103900001746DDE912ABB800FEF7DBFF064656B1FD
:103910005820FEF7D6FF04460CB1266304E030467B
:10392000FFF763F800E000247CB10020CDE900AB94
:10393000CDE902403A4649464046089BFFF781FFE1
:103940002046FFF730FF012501E04FF0FF35284604
:1039500009B0BDE8F08F87490968096809B90121F4
:1039600000E0002121B14FF0FF318A4A116006E0EA
:1039700080490968C968C868864A4168116070470B
:1039800010B50446206BFFF730F82046FFF72DF8FE
:1039900010BD70B50546FEF790FE15B97848006871
:1039A00000E028460446201DFFF7AEF878B9E06A2B
:1039B00000EB8000694951F8200040B994F82C10C0
:1039C0000120884071490968814370480160A06AFC
:1039D00018B104F11800FFF797F86B480068401C15
:1039E0006949086066480068844209D1211D5F4822
:1039F000FFF764F868480068401C6749086009E000
:103A00005E480068401E5D4908602046FFF7B8FF29
:103A1000FFF7A1FFFEF778FE5A480068E8B1584862
:103A20000068844219D15D48006808B9012000E0AF
:103A3000002050B900BF502080F31188BFF34F8F92
:103A4000BFF36F8F00BF00BFFEE74FF080505049BB
:103A50000860BFF34F8FBFF36F8F70BD2DE9F0414A
:103A60004FF000084D480068002876D14C480068A7
:103A7000451C4B48056015BB3E480068006808B906
:103A8000012000E0002050B900BF502080F31188D1
:103A9000BFF34F8FBFF36F8F00BF00BFFEE7354806
:103AA00007683548006833490860334807603D4877
:103AB0000068401C3B490860FFF74DFF00BF3548D8
:103AC000006885423CD300BF2A480068006808B9F6
:103AD000012000E0002020B14FF0FF302D490860A8
:103AE0002DE024480068C068C4686668B54202D208
:103AF0002848066023E0201DFFF706F8A06A18B1E9
:103B000004F11800FFF700F894F82C100120884009
:103B10001E49096808431D490860E16A01EB8101FB
:103B20000E4A02EB8100211DFEF7C8FF1449E06A2E
:103B30000968C96A8842C7D34FF00108C4E700BFCB
:103B40000F480068C06A00EB8000044951F820006B
:103B5000012801D94FF001082BE025E0542E012067
:103B6000B82E0120CC2E0120E02E0120F42E0120C1
:103B7000082F01206C000020700000207800002039
:103B800068000020840000209400002080000020B5
:103B900004ED00E09800002074000020A000002048
:103BA0007C00002090000020FE480068401CFD4979
:103BB0000860FD48006808B14FF001084046BDE8C4
:103BC000F08170B500240026F848006850B900BFA5
:103BD000502080F31188BFF34F8FBFF36F8F00BF6A
:103BE00000BFFEE7FEF769FDF0480068401EEF49A0
:103BF00008600846006800284FD1ED48006800289A
:103C00004BD024E0EB48C068C46804F11800FEF70C
:103C10007BFF201DFEF778FF94F82C1001208840D0
:103C2000E54909680843E4490860E16A01EB81015C
:103C3000E24A02EB8100211DFEF740FFE049E06A05
:103C40000968C96A884202D30120D7490860D94867
:103C5000006808B9012000E000200028D2D00CB193
:103C6000FFF779FECF48056865B100BFFFF7F6FEA4
:103C700010B10120CC4908606D1E002DF6D1002046
:103C8000C8490860C848006838B101263007CD49E6
:103C90000860BFF34F8FBFF36F8FFEF735FD3046DF
:103CA00070BD2DE9F04105460E46C7480768C44877
:103CB0000068001DFEF728FF50B9C148006890F861
:103CC0002C1001208840BC4909688143BA48016032
:103CD000681C38B936B1BA480168091DBB48FEF7FF
:103CE000EDFE1AE07C19B64800684460BC4207D279
:103CF000B3480168091DB6480068FEF7EBFE0CE00A
:103D0000AF480168091DB3480068FEF7E3FEB248FA
:103D10000068844201D2B0480460BDE8F081A34845
:103D20000068401CA149086070472DE9F04704462F
:103D30000F464FF0000954B900BF502080F311889E
:103D4000BFF34F8FBFF36F8F00BF00BFFEE70FB110
:103D5000012000E0002050B900BF502080F31188FE
:103D6000BFF34F8FBFF36F8F00BF00BFFEE78F48D9
:103D7000006808B9012000E0002050B900BF5020C1
:103D800080F31188BFF34F8FBFF36F8F00BF00BF69
:103D9000FEE7FFF7C4FF8C4806682068C519206855
:103DA000B04207D92068A8420BD9B54209D94FF0D3
:103DB000010906E02068A84201D8B54201D94FF0B8
:103DC00001092560B9F1000F03D0A81B0021FFF7FE
:103DD00068FFFFF7F6FE8046B8F1000F07D14FF0FD
:103DE000805078490860BFF34F8FBFF36F8FBDE8F5
:103DF000F08770B504460025D4B16C48006808B956
:103E0000012000E0002050B900BF502080F311884D
:103E1000BFF34F8FBFF36F8F00BF00BFFEE7FFF709
:103E20007EFF00212046FFF73CFFFFF7CAFE054654
:103E30003DB94FF0805063490860BFF34F8FBFF327
:103E40006F8F70BD2DE9F04107463E4656B900BF61
:103E5000502080F31188BFF34F8FBFF36F8F00BFE7
:103E600000BFFEE756480068864201D100241EE0EC
:103E7000FEF723FC7569FEF747FC5648006885424B
:103E800003D053480068854201D102240FE04F4817
:103E9000854205D1B06A08B9032408E0022406E08F
:103EA0004E48854200D00DB9042400E0012420468C
:103EB000BDE8F08170B50446FEF7FFFB14B9404839
:103EC000006800E020460646F56AFEF71DFC28461D
:103ED00070BD2DE9F0410546FEF74AFC00BF5021B8
:103EE000EFF3118081F31188BFF34F8FBFF36F8F12
:103EF00000BF044615B93248006800E0284607466E
:103F0000FE6A00BF84F3118800BF3046BDE8F0812F
:103F10002DE9F04780460D464FF00009052D01D2EE
:103F2000012000E0002050B900BF502080F311882C
:103F3000BFF34F8FBFF36F8F00BF00BFFEE7052DAC
:103F400000D30425FEF7B9FBB8F1000F02D11C48DD
:103F5000006800E040460446A66CAE4275D0B5420B
:103F60000BD91748006884420DD015480068C06A14
:103F7000A84208D84FF0010905E0114800688442C2
:103F800001D14FF00109E76AE16AA06C884200D1D3
:103F9000E562A564A06900F0004010B9C5F1050014
:103FA000A0611DE0880000208C000020A0000020FF
:103FB00078000020E02E012080000020542E0120F7
:103FC0006800002004ED00E07C000020082F0120A4
:103FD000700000206C00002098000020F42E0120CA
:103FE00007EB8701F74A02EB81016069884201D142
:103FF000012000E00020E0B1201DFEF785FD30B972
:104000000120B840F04909688143EF48016094F805
:104010002C1001208840EC4909680843EA490860EF
:10402000E16A01EB8101E74A02EB8100211DFEF705
:1040300045FDB9F1000F07D04FF08050E34908600B
:10404000BFF34F8FBFF36F8F00BFFEF75DFBBDE87F
:10405000F087DF48006818B10120DE49086032E0CF
:104060000020DC490860D8480068B0FA80F0C0F150
:104070001F0101EB8100D34A52F8200008B1012052
:1040800000E0002050B900BF502080F31188BFF33A
:104090004F8FBFF36F8F00BF00BFFEE701EB8102C0
:1040A000C84B03EB820042685268426000F108028C
:1040B0004368934202D14268526842604268D268C3
:1040C000C54B1A6000BF704770B50546FEF7F5FA9C
:1040D00015B9C148006800E028460446201DFEF7D7
:1040E00013FD78B9E06A00EB8000B64951F8200072
:1040F00040B994F82C1001208840B34909688143E5
:10410000B1480160A06A18B104F11800FEF7FCFC88
:10411000211DB248FEF7D2FCFEF7F6FAB04800685F
:1041200028B1FEF7CAFAFFF716FCFEF7EDFAAA4827
:104130000068844229D1AA480068D0B1A448006828
:1041400008B9012000E0002050B900BF502080F3E2
:104150001188BFF34F8FBFF36F8F00BF00BFFEE723
:104160004FF0805099490860BFF34F8FBFF36F8FB6
:104170000BE09A4800689B490968884203D10020F7
:104180009549086001E0FFF764FF70BD10B5024675
:104190000020114652B900BF502383F31188BFF3AA
:1041A0004F8FBFF36F8F00BF00BFFEE78B4C4B6993
:1041B000A34201D1012300E0002373B18A4C8B6A32
:1041C000A34201D1012300E0002333B98B6A0BB96C
:1041D000012300E0002303B1012010BD70B50546A6
:1041E0002C4655B900BF502080F31188BFF34F8F84
:1041F000BFF36F8F00BF00BFFEE774B3764800685F
:1042000084422AD0FEF759FA2046FFF7BFFF10B3C9
:10421000201DFEF779FC94F82C10012088406A4993
:104220000968084368490860E16A01EB8101654A51
:1042300002EB8100211DFEF741FC6749E06A096835
:10424000C96A884207D34FF0805060490860BFF3C5
:104250004F8FBFF36F8FFEF757FA70BD2DE9F04116
:1042600006460027344656B900BF502080F3118817
:10427000BFF34F8FBFF36F8F00BF00BFFEE7FEF7A6
:1042800077FA00BF5021EFF3118081F31188BFF35B
:104290004F8FBFF36F8F00BF05462046FFF776FFB5
:1042A00020B34B480068E0B94B49E06A0968C96A25
:1042B000884200D30127201DFEF726FC94F82C101D
:1042C000012088404049096808433F490860E16A85
:1042D00001EB81013B4A02EB8100211DFEF7EEFB61
:1042E00004E004F118014048FEF7E8FB00BF85F345
:1042F000118800BF3846BDE8F08170B523E0FFF7B4
:104300000EFD3A48006808B9012000E0002005468B
:10431000FFF757FCBDB9FEF7D0F93448C068C46850
:10432000201DFEF7F1FB2F480068401E2D49086054
:104330002F480068401E2E490860FEF7E5F9204628
:10434000FFF71EFB00BF2A4800680028D7D170BDC8
:1043500000BFFFF7D2FF1B4800680128F9D94FF0D2
:1043600080501A490860BFF34F8FBFF36F8FF0E79B
:104370001CB5204800210B468222CDE900101EA169
:104380001F48FFF7B8FA0446012C02D100F0AEFF37
:104390000446012C3AD100BF502080F31188BFF3AE
:1043A0004F8FBFF36F8F00BF4FF0FF30154908608C
:1043B00001200B490860002013490860FEF7D8F877
:1043C00035E00000542E01208000002004ED00E0C4
:1043D000A00000208C00002068000020082F012091
:1043E0008400002078000020E02E0120F42E01201F
:1043F000740000209C00002049444C45000000004F
:1044000051430008980000207C000020601C08B187
:10441000012000E0002050B900BF502080F3118837
:10442000BFF34F8FBFF36F8F00BF00BFFEE71CBD10
:1044300010B500BF502080F31188BFF34F8FBFF33A
:104440006F8F00BF0020F8490860FEF721F910BD0A
:10445000F6490868704770B5FEF78AF90025F348F9
:104460000468204670BDF24800687047014611B9E3
:10447000F048006800E00846024652B900BF5020EC
:1044800080F31188BFF34F8FBFF36F8F00BF00BF62
:10449000FEE702F1340070470246002101E0521CA1
:1044A000491C1078A528FAD0890888B270472DE9F0
:1044B000F04107460C4690461E4617B9DD48006895
:1044C00000E038460546256005F134006060E86A82
:1044D0002061286BE061286CA060207B032807D155
:1044E000FFF71DFCA86A08B102202073FFF769FBE3
:1044F000A86C60610020A061052E01D0267303E046
:104500003846FFF79FFC2073B8F1000F04D0286BEA
:10451000FFF7C2FF208401E000202084BDE8F08185
:104520002DE9F04707460C4690460026206848B320
:10453000204641684968416000F1080142688A42AA
:1045400002D14168496841604168D1F80C9000BFD0
:10455000204641684968416000F1080142688A428A
:1045600002D14168496841604168CD6806EBC600E8
:1045700007EB8001434601222846FFF798FF761C8F
:104580004D45E5D13046BDE8F0872DE9F0410546BF
:104590008846164600240527FFF7C1FBA44800689B
:1045A000804539D300BF7F1E07EB8702A24B03EB88
:1045B000820104EBC40205EB82000122FFF7B0FF89
:1045C0000444002FEFD104EBC40105EB810002226B
:1045D0009A490968FFF7A4FF044404EBC40105EB02
:1045E0008100022296490968FFF79AFF044404EB10
:1045F000C40105EB810004229249FFF791FF0444B6
:1046000004EBC40105EB810003228F49FFF788FF0B
:1046100004440EB100203060FFF7D3FA2046BDE815
:10462000F08170B504460D4654B900BF502080F3A8
:104630001188BFF34F8FBFF36F8F00BF00BFFEE73E
:104640007C48016818312046FEF744FA01212846CB
:10465000FFF727FB70BD70B504460D46164654B9EA
:1046600000BF502080F31188BFF34F8FBFF36F8FCF
:1046700000BF00BFFEE77548006808B1012000E0F8
:10468000002050B900BF502080F31188BFF34F8F36
:10469000BFF36F8F00BF00BFFEE745F000406549E4
:1046A000096888616348016818312046FEF706FAF8
:1046B00001213046FFF7F5FA70BD70B505460E468C
:1046C000144655B900BF502080F31188BFF34F8FB7
:1046D000BFF36F8F00BF00BFFEE756480168183177
:1046E0002846FEF7EBF90CB14FF0FF362146304675
:1046F000FFF7D7FA70BD70B50646F068C46854B9C4
:1047000000BF502080F31188BFF34F8FBFF36F8F2E
:1047100000BF00BFFEE704F11800FEF7F5F94B48B3
:104720000068A8B9201DFEF7EFF994F82C100120BD
:10473000884047490968084345490860E16A01EB38
:1047400081013D4A02EB8100211DFEF7B7F904E02B
:1047500004F118013F48FEF7B1F93649E06A0968EB
:10476000C96A884204D9012501203B49086000E05C
:104770000025284670BD2DE9F04105460F46334817
:10478000006808B1012000E0002050B900BF5020AF
:1047900080F31188BFF34F8FBFF36F8F00BF00BF4F
:1047A000FEE747F000402860EC6854B900BF502095
:1047B00080F31188BFF34F8FBFF36F8F00BF00BF2F
:1047C000FEE72846FEF7A0F9201DFEF79DF994F8B4
:1047D0002C10012088401E49096808431C490860C4
:1047E000E16A01EB8101144A02EB8100211DFEF711
:1047F00065F91049E06A0968C96A884204D9012646
:1048000001201549086000E000263046BDE8F0812F
:1048100020BB00BF502181F31188BFF34F8FBFF33E
:104820006F8F00BF00BFFEE7840000207C000020E7
:104830007800002068000020542E01206C00002029
:1048400070000020F42E0120082F0120A00000207D
:1048500080000020E02E01208C000020FE49096825
:104860000160FE4909684160704770B504460D4615
:1048700054B900BF502080F31188BFF34F8FBFF3AE
:104880006F8F00BF00BFFEE755B900BF502080F317
:104890001188BFF34F8FBFF36F8F00BF00BFFEE7DC
:1048A000FDF70BFFED4803682868401C08B9002697
:1048B00019E0E94920680968884204D06068984294
:1048C00001D801260FE06068181A2968884209D2C9
:1048D00028686168591A401A28602046FFF798FF37
:1048E000002600E00126FDF70FFF304670BD0120D5
:1048F000DB4908607047014611B10A46506C00E080
:104900000020704708B1024651647047D5490868D5
:104910007047D549096809B9012005E0D3490968FC
:1049200009B9022000E00020704770B505462C460A
:10493000002D4BD0CB49E06A0968C96A884245D24C
:10494000A06900F0004028B9C6480068C06AC0F1FC
:104950000500A061E16A01EB8101C54A02EB81011A
:104960006069884201D1012000E0002050B3201D81
:10497000FEF7CAF878B9E06A00EB8000BC4951F84C
:10498000200040B994F82C1001208840B9490968EA
:104990008143B8480160B3480068C06AE06294F897
:1049A0002C1001208840B34909680843B1490860C8
:1049B000E16A01EB8101AE4A02EB8100211DFEF7A5
:1049C0007DF803E0A7480068C06AE06270BD70B57A
:1049D00005462C460026002D55D0A248006884428A
:1049E00001D1012000E0002050B900BF502080F329
:1049F0001188BFF34F8FBFF36F8F00BF00BFFEE77B
:104A0000E06C50B900BF502080F31188BFF34F8F86
:104A1000BFF36F8F00BF00BFFEE7E06C401EE06495
:104A2000A16CE06A88422ED0E06C60BB201DFEF7CE
:104A30006BF878B9E06A00EB80008D4951F82000EE
:104A400040B994F82C10012088408A4909688143B4
:104A500088480160A06CE062E06AC0F10500A061D6
:104A600094F82C1001208840824909680843814944
:104A70000860E16A01EB81017D4A02EB8100211DA2
:104A8000FEF71CF80126304670BD76490968886932
:104A900074490968C96AC1F10501724A12689161D5
:104AA00070477048006830B16E49096801F14C00E8
:104AB000C96C491C01606B480068704770B50646B8
:104AC0000D46FDF7FAFD67480068006D88B90120C2
:104AD0006449096881F854005DB101212846FFF757
:104AE000E0F84FF0805064490860BFF34F8FBFF388
:104AF0006F8FFDF709FEFDF7E0FD5A480068046D71
:104B00004CB126B1002057490968086503E0601ED2
:104B100054490968086500205249096881F8540021
:104B2000FDF7F2FD204670BD2DE9F04107468846AD
:104B300014461D46FDF7C1FD4A48006890F8540030
:104B4000022818D04749096801F15000096DB9439E
:104B5000016001204349096881F854005DB10121D9
:104B60002846FFF79EF84FF0805043490860BFF396
:104B70004F8FBFF36F8FFDF7C7FDFDF79EFD1CB193
:104B800038480068006D20603648006890F854008E
:104B9000012801D1002608E03249096801F15000DE
:104BA000096D21EA08010160012600202D490968EC
:104BB00081F85400FDF7A8FD3046BDE8F0812DE9ED
:104BC000F04706460D46174698464FF0010A56B97B
:104BD00000BF502080F31188BFF34F8FBFF36F8F5A
:104BE00000BF00BFFEE73446FDF767FDB8F1000FD8
:104BF00002D0206DC8F8000094F85490022084F888
:104C00005400052F17D2DFE807F01503070B0D003E
:104C1000206D284320650EE0206D401C20650AE0D1
:104C2000256508E0B9F1020F01D0256501E04FF0DC
:104C3000000A00E000BF00BFB9F1010F46D1201DFE
:104C4000FDF762FF94F82C1001208840094909689B
:104C500008430849086011E0900000207C00002013
:104C60008C0000206800002084000020A0000020AC
:104C7000542E01208000002004ED00E0E16A01EBE9
:104C80008101A14A02EB8100211DFDF717FFA06AF7
:104C900008B9012000E0002050B900BF502080F387
:104CA0001188BFF34F8FBFF36F8F00BF00BFFEE7C8
:104CB0009649E06A0968C96A884207D94FF080506E
:104CC00093490860BFF34F8FBFF36F8FFDF71CFD53
:104CD0005046BDE8F0872DE9F84F07460E4690464E
:104CE0009946DDF828B00120009057B900BF502048
:104CF00080F31188BFF34F8FBFF36F8F00BF00BFEA
:104D0000FEE7FDF735FD3C4600BF5021EFF3118073
:104D100081F31188BFF34F8FBFF36F8F00BF05463C
:104D2000B9F1000F02D0206DC9F8000094F854A02A
:104D3000022084F85400B8F1050F17D2DFE808F01C
:104D40001503070B0D00206D304320650EE0206D2C
:104D5000401C20650AE0266508E0BAF1020F01D088
:104D6000266501E00020009000E000BF00BFBAF11E
:104D7000010F3ED1A06A08B9012000E0002050B91F
:104D800000BF502080F31188BFF34F8FBFF36F8FA8
:104D900000BF00BFFEE75F480068A8B9201DFDF70F
:104DA000B3FE94F82C10012088405B490968084341
:104DB00059490860E16A01EB8101534A02EB810025
:104DC000211DFDF77BFE04E004F118015348FDF7B7
:104DD00075FE4E49E06A0968C96A884209D9BBF183
:104DE000000F03D00120CBF8000002E001204C4965
:104DF000086000BF85F3118800BF0098BDE8F88FF8
:104E00002DE9F04105460F4655B900BF502080F30B
:104E10001188BFF34F8FBFF36F8F00BF00BFFEE756
:104E2000FDF7A6FC2C4600BF5021EFF3118081F363
:104E30001188BFF34F8FBFF36F8F00BF064694F802
:104E40005480022084F85400206D401C2065B8F185
:104E5000010F3BD1A06A08B9012000E0002050B941
:104E600000BF502080F31188BFF34F8FBFF36F8FC7
:104E700000BF00BFFEE727480068A8B9201DFDF766
:104E800043FE94F82C100120884023490968084308
:104E900021490860E16A01EB81011B4A02EB8100B4
:104EA000211DFDF70BFE04E004F118011B48FDF77E
:104EB00005FE1649E06A0968C96A884206D917B131
:104EC0000120386002E001201549086000BF86F328
:104ED000118800BFBDE8F08170B5054615B90B48D3
:104EE000006800E028460646FDF7E7FB96F8540008
:104EF000022804D1002086F85400012400E0002498
:104F0000FDF702FC204670BD542E012068000020F1
:104F100004ED00E0A000002080000020E02E012031
:104F20008C0000202DE9F04104460D4616461F4630
:104F30004FF0000865602461B5420CD8F01BA169F0
:104F4000884202D34FF0010811E0211DF7480068A4
:104F5000FDF7C0FD0BE0BE4204D2BD4202D34FF0CC
:104F6000010804E0211DF2480068FDF7B3FD40464A
:104F7000BDE8F0812DE9FE4304460D4616461F4666
:104F8000DDF828804FF0000954B900BF502080F3AD
:104F90001188BFF34F8FBFF36F8F00BF00BFFEE7D5
:104FA000E448006810B3009501960294062D15DAC6
:104FB000FFF7AFFC022808D1002342466946DD48CE
:104FC0000068FDF7CBFE814610E000231A466946D3
:104FD000D8480068FDF7C2FE814607E000233A4644
:104FE0006946D4480068FEF728F981464846BDE87E
:104FF000FE832DE9F84332E0CD480068C0680568BB
:10500000CB480068C068C468201DFDF77DFD2046C0
:10501000616A8847E069012821D1A0694619AE423A
:1050200007D966602461211DC1480068FDF752FD63
:1050300015E0002003462A46014600902046FFF76F
:1050400099FF074657B900BF502080F31188BFF37E
:105050004F8FBFF36F8F00BF00BFFEE700BFB448A4
:105060000068006808B9012000E000200028C3D0D3
:10507000AF48D0F80080AD480068AD490860AB4843
:10508000C0F80080BDE8F88370B50446FFF7E0F98A
:105090000546A9480068854204D2FFF7AAFF01200F
:1050A000206001E000202060A3480560284670BD14
:1050B00070B586B06AE00398002867DB059C6069DC
:1050C00008B9012000E0002010B9201DFDF71CFDEB
:1050D00002A8FFF7D9FF054603980A2854D2DFE853
:1050E00000F009050731334F0608323400BF00BF16
:1050F00000BF00BF0498A269811803462A462046D3
:10510000FFF710FFE8B12046616A8847E06901288F
:1051100017D1002000900498A16942180023194675
:105120002046FFF727FF064656B900BF502080F300
:105130001188BFF34F8FBFF36F8F00BF00BFFEE733
:1051400000BF22E000BF20E000BF0498A061A0697A
:1051500008B1012000E0002050B900BF502080F3CA
:105160001188BFF34F8FBFF36F8F00BF00BFFEE703
:10517000A06941192B462A462046FFF7D3FE04E0DA
:105180002046FDF732FC00E000BF00BF00231A46B6
:1051900003A968480068FDF71AFF00288BD106B004
:1051A00070BDF8B505460F4661480068C068C46820
:1051B000201DFDF7A9FCE06901281DD1A069411956
:1051C0002B463A462046FFF7ADFEA8B10020034625
:1051D0002A46014600902046FFF7CCFE064656B907
:1051E00000BF502080F31188BFF34F8FBFF36F8F44
:1051F00000BF00BFFEE700BF2046616A8847F8BDD8
:10520000F8B505460C46FEF78AFD6846FFF73CFFF9
:105210000646009820BB44B9B54206D8FEF7D1FC3B
:1052200031462846FFF7BDFF1CE03CB13F4800680F
:10523000006808B9012000E000200446A91B2246AE
:105240003C480068FEF765FAFEF7BBFC50B94FF02A
:1052500080503A490860BFF34F8FBFF36F8F01E072
:10526000FEF7AFFCF8BD0146314A126812680AB970
:10527000012200E000220A600A6822B92C4A126862
:10528000D268106800E00020704708B500BF68468B
:10529000FFF7E9FF044620460099FFF7B1FFFFF74B
:1052A00007FFF4E710B5FDF708FA22480068D0B907
:1052B0002348FDF7F3FB2348FDF7F0FB20481C498A
:1052C000086020481949086000220C210A20FDF7D7
:1052D0008DFC184908600846006820B11AA11548DD
:1052E0000068FEF7F0F9FDF70FFA10BD1CB50024B9
:1052F000FFF7D8FF0F48006858B115480221002376
:105300004FF48272CDE9001012A11448FEF7F3FAAF
:10531000044654B900BF502080F31188BFF34F8F6B
:10532000BFF36F8F00BF00BFFEE719E0A8000020A9
:10533000A4000020AC000020B400002004ED00E038
:105340001C2F0120302F0120546D725100000000ED
:10535000B0000020546D7220537663008B52000819
:1053600020461CBD2DE9F04706460D4617469846D7
:10537000DDE908940DB1012000E0002050B900BF24
:10538000502080F31188BFF34F8FBFF36F8F00BFA2
:1053900000BFFEE75CB1FFF785FF2660A561E7610E
:1053A000C4F82080C4F82490201DFDF784FBBDE8DC
:1053B000F0872DE9FC4705460E4617469846DDF86E
:1053C00028902C20FDF77DFA04463CB143463A462E
:1053D00031462846CDE90094FFF7C4FF2046BDE8DA
:1053E000FC874748006808B1012000E0002050B960
:1053F00000BF502080F31188BFF34F8FBFF36F8F32
:1054000000BF00BFFEE73E480068704701460A46FD
:1054100051B900BF502080F31188BFF34F8FBFF305
:105420006F8F00BF00BFFEE79069704710B501465F
:105430000A4651B900BF502383F31188BFF34F8F41
:10544000BFF36F8F00BF00BFFEE7506810BD01467D
:105450000A4651B900BF502080F31188BFF34F8F27
:10546000BFF36F8F00BF00BFFEE71068704770B5D5
:105470000446264654B900BF502080F31188BFF37C
:105480004F8FBFF36F8F00BF00BFFEE7FDF715F929
:10549000706908B9012000E0002080F00105FDF7E7
:1054A00033F9284670BD70B50446254654B900BF8F
:1054B000502080F31188BFF34F8FBFF36F8F00BF71
:1054C00000BFFEE7FDF7F9F82E6AFDF71DF930463B
:1054D00070BD70B504460D46264654B900BF502035
:1054E00080F31188BFF34F8FBFF36F8F00BF00BFF2
:1054F000FEE7FDF7E2F83562FDF706F970BD000042
:10550000B000002070B502460C46FF25FF2309E0DD
:1055100012F8010B80EA0301CB48405C80EA0503E6
:10552000CA48455C2000A4F10106B4B2F0D143EAB8
:10553000052070BD70B5044634252946204601F08B
:10554000CEFF70BD70B586B00546C1480078112801
:1055500002DB0020BE4908702978BE48BC4A127898
:1055600081542878AA286CD1B948007808301121D4
:1055700090FBF1F201FB1200B649085CFF2860D1F4
:1055800000240EE0B248007808302044112190FB3E
:10559000F1F201FB1200AF49085C01A90855601C3B
:1055A000C4B2072CEEDB072101A8FFF7ABFF0146D1
:1055B000A74800781030112290FBF2F302FB130091
:1055C000A44A125CA24800780F30112390FBF3F636
:1055D00003FB16009F4B185C42EA0020814230D149
:1055E0009B4800780930112190FBF1F201FB120079
:1055F0001946085C012802D0022821D112E00024BB
:105600000DE001A9A01C085C934921F8140008468C
:1056100030F9141091A001F087FE601CC4B2052C73
:10562000EFDB0DE0002408E001A9A01C095C8A481A
:105630000A3020F81410601CC4B2032CF4DB00BF45
:1056400000BF83480078401C8149087006B070BDD7
:10565000F0B58BB006460D46FF208DF804000224FD
:10566000012D06D0022D13D0032D21D0042D41D1C0
:105670002FE08DF80550002007E016F81030214685
:10568000621CD4B201AA5354401C0328F5DB35E058
:105690008DF80550002008E0B11D11F810302146AA
:1056A000621CD4B201AA5354401C0328F4DB25E049
:1056B0008DF80550002009E006F10C0111F82030AA
:1056C0002146621CD4B201AA5354401C0828F3DBC3
:1056D00014E08DF80550002009E006F12C0111F8C6
:1056E00010302146621CD4B201AA5354401C032836
:1056F000F3DB03E0FE208DF8050000BF00BF9DF83E
:105700000500FE2801D10BB0F0BD214601A8FFF72E
:10571000F9FE07463A0A2046611CCCB201A90A5498
:105720002046611CCCB201A90F54AA222046611C5C
:10573000CCB201A90A54214601A800F01AF900BF11
:1057400000BFE0E710B54848FFF7F4FE10BD10B504
:105750002DED048BB0EE408AF0EE608AB0EE419AF7
:10576000BDEEC80A10EE100A00B23F490880BDEE37
:10577000E80A10EE100A00B24880BDEEC90A10EE29
:10578000100A00B2888001213748FFF761FFBDECA5
:10579000048B10BD10B52DED048BB0EE408AF0EEF9
:1057A000608AB0EE419ABDEEC80A10EE100A00B24F
:1057B0002D49C880BDEEE80A10EE100A01B22A4851
:1057C0000181BDEEC90A10EE100A01B226484181DE
:1057D0000221FFF73DFFBDEC048B10BD10B52DED90
:1057E000048BB0EE408AF0EE608AB0EE419ABDEED6
:1057F000C80A10EE100A00B21B498885BDEEE80AFF
:1058000010EE100A01B21848C185BDEEC90A10EEAB
:10581000100A01B2144801860421FFF719FFBDECFC
:10582000048B10BD10B50446002005E0225C0E4933
:105830000C3141F82020401C0828F7DB03210A48DE
:10584000FFF706FF10BD00003E9100083E920008E1
:10585000B8000020442F0120562F01207265763AAF
:1058600025640D0A00000000682F01201CB50121ED
:105870000420FBF759FB4FF40050009001208DF8F5
:10588000040000208DF8060003208DF8050001209B
:105890008DF8070069460C48FBF7A8F81CBD10B549
:1058A0004FF400510848FBF710F9C0F10100C4B2F1
:1058B00022464FF400510448FBF718F94FF4FA70F0
:1058C000FEF797FA10BD00000008024010B586B040
:1058D000044601210820FBF727FB01210420FBF7E8
:1058E00023FB01210805FBF768FB082202212B4856
:1058F000FBF707F90420049002208DF814008DF8BE
:10590000150000208DF8160001208DF8170004A95D
:105910002248FBF76BF808220C212148FBF7F1F82D
:105920004FF48050049002208DF814008DF815007B
:1059300000208DF8160001208DF8170004A91848E2
:10594000FBF754F800940020ADF80400ADF8060011
:10595000ADF80800ADF80C000C20ADF80A0069465F
:105960001048FCF7EEFA01210E48FCF772FB06B076
:1059700010BD70B505460E4600240CE000BF402166
:105980000848FCF741FC0028F9D0295D0548FCF7E0
:105990008BFB601CC4B2B442F0DB70BD000C024053
:1059A000000802400050004008B540F22551484828
:1059B000FCF740FC60B14648FCF77AFBC0B20090AF
:1059C0006846FFF7BFFD40F225514148FCF76DFCEA
:1059D00040F224413E48FCF72DFC58B101203D49DE
:1059E00008703B480088C0B200903948001D00880C
:1059F000C0B2009008BD10B588B004460121084629
:105A0000FBF792FA01214804FBF7D7FA072202219B
:105A10003148FBF776F8072203212F48FBF771F88E
:105A20000C20059002208DF818008DF81900002038
:105A30008DF81A0001208DF81B0005A92648FAF7F9
:105A4000D5FF01940020ADF80800ADF80A00ADF8CC
:105A50000C00ADF810000C20ADF80E0001A91C4898
:105A6000FCF76FFA01211A48FCF7F3FA012240F221
:105A700025511748FCF7A3FB012240F224411448AA
:105A8000FCF79DFB26208DF81C0005208DF81D00DD
:105A900000208DF81E0001208DF81F0007A8FAF7DE
:105AA000B4FE08B010BD70B505460E4600240CE0EB
:105AB00000BF40210648FCF7A7FB0028F9D0295D6C
:105AC0000348FCF7F1FA601CC4B2B442F0DB70BDCD
:105AD00000440040BA000020000002400246134685
